:020000040800F2
:10000000100800200D020008150200081702000861
:10001000190200081B0200081D0200080000000071
:100020000000000000000000000000001F020008A7
:10003000210200080000000023020008E11400086B
:1000400027020008270200082702000827020008EC
:1000500027020008270200082702000827020008DC
:1000600027020008270200082702000827020008CC
:1000700027020008270200082702000827020008BC
:1000800027020008270200082702000827020008AC
:10009000270200082702000827020008270200089C
:1000A000270200082702000827020008270200088C
:1000B000270200082702000827020008E50C0008B4
:1000C000D10C0008270200082702000827020008B8
:1000D000270200082702000827020008270200085C
:1000E000270200082702000827020008270200084C
:1000F000270200082702000827020008270200083C
:10010000270200082702000827020008270200082B
:10011000270200082702000827020008270200081B
:10012000270200082702000827020008270200080B
:1001300000F002F800F05AF80AA090E8000C82449F
:100140008344AAF10107DA4501D100F04FF8AFF27C
:10015000090EBAE80F0013F0010F18BFFB1A43F0A5
:10016000010318477C4100009C4100000A444FF005
:10017000000C10F8013B13F0070408BF10F8014B06
:100180001D1108BF10F8015B641E05D010F8016B4B
:10019000641E01F8016BF9D113F0080F1EBF10F8AF
:1001A000014BAD1C0C1B09D16D1E58BF01F801CBD2
:1001B000FAD505E014F8016B01F8016B6D1EF9D555
:1001C0009142D6D37047000000230024002500266A
:1001D000103A28BF78C1FBD8520728BF30C148BFAA
:1001E0000B6070471FB51FBD10B510BD00F044F87F
:1001F0001146FFF7F7FF02F069F800F062F803B468
:10020000FFF7F2FF03BC00F065F8000009488047E3
:1002100009480047FEE7FEE7FEE7FEE7FEE7FEE7E8
:10022000FEE7FEE7FEE7FEE704480549054A064B00
:100230007047000055150008310100081002002029
:1002400010080020100400201004002070477047A0
:10025000704710B500F008F8006810BD10B50446EE
:1002600000F002F8046010BD00487047AC010020A7
:1002700000487047AC0100207546FFF7F9FFAE4615
:1002800005006946534620F00700854618B020B5A2
:10029000FFF7CAFFBDE820404FF000064FF000070F
:1002A0004FF000084FF0000B21F00701AC46ACE81E
:1002B000C009ACE8C009ACE8C009ACE8C0098D468B
:1002C000704710B50446AFF300802046BDE81040EB
:1002D000FFF795BF01491820ABBEFEE726000200DC
:1002E000704700002DE9F04FADF5737D94488069AB
:1002F00040F01000924988619248406820F4400024
:10030000904948600846406840F4801048600846BC
:10031000006920F40050086100274FF000084FF0FA
:1003200000094FF0000A4FF0000B0020F290282047
:10033000F1902821C9A800F074FF282179A800F0C5
:1003400070FF282129A800F06CFF2821A1A800F047
:1003500068FF282151A800F064FF282101A800F0BF
:1003600060FF03207849086028E04FF4967006E0AB
:1003700040F6B83100E0491E0029FCDC401E002890
:10038000F6DC7048006940F000506E4908614FF497
:10039000967006E040F6B83100E0491E0029FCDC0A
:1003A000401E0028F6DC6748006940F400506549AB
:1003B000086165480068401E63490860624800683B
:1003C0000028D2D15F48006940F000505D490861C3
:1003D00049F6404638E000F09DF95C4903C903F056
:1003E00057FA2822C9A9009000F040FD574903C9D7
:1003F00003F04EFA2822A1A9009000F05AFD5449BA
:1004000003C903F045FA282229A9009000F02EFD27
:100410004F4903C903F03CFA282201A9009000F0DB
:1004200048FD4C4903C903F033FA282279A900900A
:1004300000F01CFD474903C903F02AFA282251A9FC
:10044000009000F036FD761E002EC4DCB59FDDF86E
:100450009491DDF854B0DDF87483DDF834A23D9852
:10046000F29007EB080606EBD671481003F03FFA4E
:10047000394A03C2F2980BEB000606EBD67148101E
:1004800003F035FA354A03C209EB0A0606EBD671CA
:10049000481003F02CFA324A03C207202A490860A8
:1004A00028E04FF4967006E040F6B83100E0491EAF
:1004B0000029FCDC401E0028F6DC2248006940F0E0
:1004C0000050204908614FF4967006E040F6B831BC
:1004D00000E0491E0029FCDC401E0028F6DC19481B
:1004E000006940F400501749086117480068401E31
:1004F00015490860144800680028D2D142F21070F3
:1005000006E040F6B83100E0491E0029FCDC401E40
:100510000028F6DC0B48006940F4005009490861E6
:10052000104830C8002110480E4AC2E9001000F0FF
:10053000F1F80C4830C00DF5737DBDE8F08F000078
:10054000001002400010014018000020300100207F
:10055000400100203801002080010020900100208F
:1005600088010020600100200000F03F30B587B016
:100570000022574B574903C903F020FA044603F001
:1005800087F900B2ADF800000022514B524903C96F
:1005900003F014FA044603F07BF900B2ADF8020050
:1005A00000224B4B4D4903C903F008FA044603F0FF
:1005B0006FF900B2ADF804000022454B484903C969
:1005C00003F0FCF9044603F063F900B2ADF806004D
:1005D0000022444B444903C903F0F0F9044603F0F8
:1005E00057F900B2ADF8080000223E4B3F4903C95D
:1005F00003F0E4F9044603F04BF900B2ADF80A0049
:100600000022384B3A4903C903F0D8F9044603F0F5
:100610003FF900B2ADF80C000022324B354903C956
:1006200003F0CCF9044603F033F900B2ADF80E0044
:1006300000222C4B304903C903F0C0F9044603F0F3
:1006400027F900B2ADF810002C4903C903F020F9D6
:1006500000B2ADF812002A4903C903F019F900B23B
:10066000ADF81400274903C903F012F900B2ADF840
:10067000160000221B4B244903C903F09FF90446CE
:1006800003F006F900B2ADF8180000201F49086019
:1006900018E01E4909683DF81100C0F307201B4906
:1006A00009681B4A02F81100184909681DF8111061
:1006B000164800684000401C115414480068401C53
:1006C00012490860114800680D28E2D307B030BD18
:1006D0000088C34000010020080100201001002014
:1006E000F8000020000024405000002048000020B6
:1006F0004000002060000020580000203001002051
:10070000380100204001002068000020180000206F
:10071000980100202DE9F04F87B03D2000F0ACFD9E
:10072000834603F0E4F80646D1480CC8304603F08F
:1007300045F98146CF4AD04B03F040F9CDE9040199
:10074000CB480CC80020CD4903F05EFB0646CC48E0
:100750000CC8304603F032F9CDE90201DDE904238B
:1007600002F082FEC64A03C23F2000F085FD8346A8
:1007700003F0BDF88146BE480CC8484603F01EF998
:100780000646BC4ABC4B03F019F9CDE90401B84850
:100790000CC80020B94903F037FB0646B9480CC81D
:1007A000304603F00BF9CDE90201DDE9042302F044
:1007B0005BFEB44A03C23B2000F05EFD834603F0BB
:1007C00096F88146AA480CC8484603F0F7F8064652
:1007D000A84AA94B03F0F2F8CDE90401A4480CC8DB
:1007E0000020A64903F010FB0646A7480CC8304677
:1007F00003F0E4F8CDE90201DDE9042302F034FE60
:10080000A14A03C2452000F037FD834603F06FF88C
:10081000064697480CC8304603F0D0F89B4A9C4BDC
:10082000CDE9000103F0CAF881460022994B03F09C
:10083000C5F8CDE904018E480CC800208F4903F0AB
:10084000E3FA064694480CC8304603F0B7F8CDE901
:100850000201DDE9042302F007FE8F4A03C24720AC
:1008600000F00AFD834603F042F8814680480CC838
:10087000484603F0A3F8854A854BCDE9000103F013
:100880009DF806460022834B03F098F8CDE9040159
:1008900077480CC80020794903F0B6FA06467F482D
:1008A0000CC8304603F08AF8CDE90201DDE90423E3
:1008B00002F0DAFD794A03C2432000F0DDFC8346F2
:1008C00003F015F881466A480CC8484603F076F8EC
:1008D00006466E4A6E4B03F071F800226D4BCDE96F
:1008E000000103F06BF8CDE9040161480CC8002059
:1008F000624903F089FA064669480CC8304603F09D
:100900005DF8CDE90201DDE9042302F0ADFD644AA2
:1009100003C28C21252000F03DFD0321262000F09C
:1009200039FD8721272000F035FD492000F0A4FC87
:100930000446C4F3072141EA042108B202F0D7FFBC
:10094000814658480CC8484603F05EFA064602F055
:100950009FFF04B2204602F0CAFF064652480CC868
:10096000304603F02BF881468A464F480CC80020D9
:10097000424903F049FA06464C480CC8304603F099
:100980001DF84A465346CDE9040102F06DFD474A81
:1009900003C24B2000F070FC8046C8F3072141EAF7
:1009A000082108B202F0A3FF064641480CC83046B1
:1009B00003F02AFA814602F06BFF0FFA80F84046F6
:1009C00002F095FFCDE9040137480CC8049802F005
:1009D000F5FF06460F4634480CC80020274903F0AF
:1009E00013FACDE9040133480CC8049802F0E6FF7D
:1009F000814632463B4602F037FD2E4A03C24D2067
:100A000000F03AFC0546C5F3072141EA052109B289
:100A1000484202F06CFF814627480CC8484603F064
:100A2000F3F9064602F034FF05B2284602F05FFFF4
:100A3000CDE904011C480CC8049802F0BFFF06462B
:100A40000F4619480CC800200C4903F0DDF9CDE928
:100A500004011A480CC8049802F0B0FF81463246DF
:100A60003B4602F001FD154A03C207B0BDE8F08F16
:100A70005801002074479CA1FAFF1F3F0000F03F7F
:100A80000001002008010020100100207CAC093783
:100A90005300003F000024402800002030000020C8
:100AA000380000208001002060010020300100207B
:100AB0009001002040010020880100203801002022
:100AC0002DE9FF5F8AB07B4A7B4BDDE90A0102F02A
:100AD00075FF0022794BCDE9020102F081FDCDE9DD
:100AE000040101F0A5FB04460D46724A724BDDE994
:100AF0000A0102F063FF0022704BCDE9020102F00F
:100B00006FFDCDE9040102F039FC06460F46694845
:100B10006949DDE90C2302F051FF0022674BCDE962
:100B2000020102F05DFDCDE9040101F081FB804688
:100B3000894660486049DDE90C2302F03FFF00224E
:100B40005E4BCDE9020102F04BFDCDE9040102F05C
:100B500015FC82468B4657485749DDE9182302F0B9
:100B60002DFF0022554BCDE9020102F039FDCDE900
:100B7000040101F05DFBCDE908014E484E49DDE975
:100B8000182302F01BFF00224C4BCDE9020102F0BA
:100B900027FDCDE9040102F0F1FBCDE90601304665
:100BA0003946DDE9062302F009FF52465B46CDE9EE
:100BB000000102F003FFCDE9040120462946DDE9EA
:100BC000082302F0FBFE42464B46CDE9000102F04D
:100BD000F5FECDE90201DDE9042303F015F9384AF9
:100BE00003C230463946DDE9062302F0E7FE4246FD
:100BF0004B46CDE9000102F0E1FECDE904012046BB
:100C00002946DDE9082302F0D9FE52465B46CDE9CC
:100C1000000102F0D3FECDE90201DDE9042302F078
:100C200023FC284A03C220462946DDE9062302F0B8
:100C3000C5FE52465B46CDE9000102F0BFFECDE99C
:100C4000040130463946DDE9082302F0B7FE42468A
:100C50004B46CDE9000102F0B1FECDE90201DDE92C
:100C6000042302F001FC184A03C230463946DDE98C
:100C7000082302F0A3FE52465B46CDE9000102F0D4
:100C80009DFECDE9040120462946DDE9062302F058
:100C900095FE42464B46CDE9000102F08FFECDE9BC
:100CA0000201DDE9042303F0AFF8084A03C20EB0E5
:100CB000BDE8F09F182D4454FB2109400080764088
:100CC000D8000020E0000020E8000020F000002014
:100CD00000B500200249087000F0AEFA00BD000027
:100CE0007801002000B51B48008800F0100078B1A2
:100CF000184800881748001D008800F09DFA154824
:100D00001438008840F480601249143908801FE0CC
:100D10001048001D008800F0040088B10D480088CC
:100D20000C48001D00880C480C490978405C0949B2
:100D3000091F088009480078401C0849087007E02E
:100D4000044800880348001D00880248001F0088EE
:100D500000BD0000145400409801002078010020DC
:100D60000948008840F001000749088000BF064894
:100D7000008800F001000028F9D00348008840F402
:100D800080600149088070470054004010B52D482C
:100D9000806940F008002B4988610846C06940F42A
:100DA0000010C8612848006820F04C4026490860BF
:100DB0000846006840F04C5008600846006840F063
:100DC0004C4008602148008820F001001F4908803D
:100DD00000BF1E48008800F001000028F9D11B4820
:100DE000008820F0820019490880081D008840F220
:100DF000323108431549091D088014481C30008809
:100E000040F4404011491C3108800846008840F0F9
:100E1000050008800620091D08800C48083000885D
:100E200020F400400949083108800846008840F055
:100E30002E0008801F2000F0E9F9202000F0E6F9DC
:100E400010BD000000100240000C014000540040A2
:100E50000548008820F4806003490880084600881F
:100E600020F001000880704700540040F0B50446AF
:100E7000501E51F82000A0421ADA2546002014E046
:100E800051F82030AB420FDA012307E0D61A761E64
:100E900051F82660D71A41F827605B1C161A9E424B
:100EA000F4DC41F820501046401C9042E8DB00BFC3
:100EB000F0BDF0B50446501E51F82000A0421ADDE6
:100EC0002546002014E051F82030AB420FDD01230D
:100ED00007E0D61A761E51F82660D71A41F8276027
:100EE0005B1C161A9E42F4DC41F820501046401C50
:100EF0009042E8DB00BFF0BD2DE9F047B9488069BA
:100F000040F00500B7498861B7480068B749084014
:100F1000B549086008460068B5490843B249086009
:100F200008460068B3490843AF490860AE4810302E
:100F3000006840F00400AC491031086008460068C1
:100F400040F010000860A748806940F48050A5492F
:100F50008861A948008840F237110843A6490880F3
:100F60000846808840F0040088800846008840F0E9
:100F7000400008800020A149086004E09F48006804
:100F8000401C9E4908609D4800689D498842F5D3F1
:100F900080216B2000F0FEF942F210709749086042
:100FA00004E096480068401E944908609348006831
:100FB0000028F6D101216B2000F0ECF942F210700C
:100FC0008E49086004E08D480068401E8B49086027
:100FD0008A4800680028F6D13F216C2000F0DAF939
:100FE00042F210708549086004E084480068401EA1
:100FF00082490860814800680028F6D100216C20F1
:1010000000F0C8F942F210707C49086004E07B48A7
:101010000068401E79490860784800680028F6D1C9
:1010200002211A2000F0B6F92221372000F0B2F98F
:1010300020216A2000F0AEF90D21242000F0AAF949
:101040000C21252000F0A6F90B21262000F0A2F9A2
:101050000121632000F09EF98121272000F09AF9F8
:1010600042F210706549086004E064480068401E60
:1010700062490860614800680028F6D10A212620EC
:1010800000F088F91621632000F084F981212720DF
:1010900000F080F94FF47A705849086004E057482E
:1010A0000068401E55490860544800680028F6D181
:1010B00011211B2000F06EF908211C2000F06AF9B4
:1010C00008211D2000F066F900204C49086004E06A
:1010D0004A480068401C494908604848006847F28F
:1010E00030518842F4D300244FF000094FF0000A39
:1010F0000021152000F00CF90021172000F008F95C
:101100000021132000F004F900203C49086010E0A1
:10111000452000F0B1F80444472000F0ADF88144C8
:10112000432000F0A9F8824434480068401C334949
:1011300008603248006842F210718842E8D32046C5
:1011400002F0D5FB074600222E4B02F049FA81F04F
:101150000041054602F09CFB0446484602F0C7FBEE
:1011600005460022274B02F03BFA81F0004107467A
:1011700002F08EFB8146504602F0B9FB0546002284
:10118000204B02F02DFA81F00041074602F080FB6F
:10119000824600217A2000F0BBF800217D2000F07B
:1011A000B7F80021772000F0B3F821B2152000F045
:1011B000AFF80FFA89F1172000F0AAF80FFA8AF1B8
:1011C000132000F0A5F810497A2000F0A1F842F2AF
:1011D00052617D2000F09CF83421772000F098F8CF
:1011E000BDE8F0870010024000080140FFF33333F0
:1011F000000111110000808800300140180000201B
:1012000080841E000088C3401ADCFFFF00F01F022C
:10121000012191404209920002F1E022C2F800113E
:1012200070470246002003E0002342F82030401CB3
:101230008842F9DB704700000D48008820F4806088
:101240000B4908800846008820F001000880002033
:10125000084908700648008840F0010004490880E9
:1012600000BF0348008800F001000028F9D0704753
:10127000005400407801002001462248006840F4F4
:101280008010204A106041F080001F4A107300BF98
:101290001D48008900F001000028F9D01A48808913
:1012A000C0B21A4A108000201080174A107300BF85
:1012B0001548008900F001000028F9D01248808903
:1012C000000200B2114A108000200F4A107300BFC4
:1012D0000D48008900F001000028F9D00A488089F3
:1012E000C0B20A4AB2F900201043084A10800548EB
:1012F000006840F01000034A10600448B0F9000094
:101300007047000010080140003001401C00002020
:101310001D4A126842F480121B4B1A601B4A10735C
:1013200000BF1A4A128902F00102002AF9D0174AB6
:101330009289D2B2164B1A800A0A144B1A7300BF54
:10134000124A128902F00102002AF9D00F4A92894A
:10135000D2B20F4B1A800D4B197300BF0B4A128982
:1013600002F00102002AF9D0084A9289D2B2084B51
:101370001A80054A126842F01002034B1A600022DC
:10138000034B1A80704700001008014000300140F4
:101390001C000020154A126842F48012134B1A6098
:1013A000134A107300BF124A128902F00102002A88
:1013B000F9D00F4A9289D2B20E4B1A800C4A11739F
:1013C00000BF0B4A128902F00102002AF9D0084A34
:1013D0009289D2B2074B1A80044A126842F0100276
:1013E000024B1A600022034B1A807047100801401C
:1013F000003001401C00002010B500F001F810BDC5
:101400000CB50020019000903348006840F4803013
:101410003149086000BF3048006800F40030009097
:101420000198401C0190009818B90198B0F5A06F80
:10143000F1D12948006800F4003010B1012000907B
:1014400001E0002000900098012843D12348006863
:1014500040F01000214908600846006820F00300B1
:1014600008600846006840F0020008601A484068BA
:10147000194948600846406848600846406840F49A
:10148000806048600846406820F47C104860084648
:10149000406840F4E81048600846006840F08070FA
:1014A000086000BF0C48006800F000700028F9D008
:1014B0000948406820F00300074948600846406832
:1014C00040F00200486000BF0348406800F00C0094
:1014D0000828F9D10CBD0000001002400020024095
:1014E0001148008820F480600F4908800846008871
:1014F00020F00100088000200C4908700C4800789A
:1015000040B100200B490870094908704FF0E021F4
:10151000886107E04FF0E020006920F002004FF002
:10152000E02108617047000000540040780100206D
:101530007100002070000020054800686421B0FBA5
:10154000F1F04FF0E021486107200861704700008A
:101550000000002010B51348006840F00100114958
:10156000086008464068104908400E49486008462F
:1015700000680E4908400B4908600846006820F4DE
:10158000802008600846406820F4FE0048604FF460
:101590001F008860FFF730FF4FF0006004490860CB
:1015A00010BD0000001002400000FFF8FFFFF6FE33
:1015B00008ED00E0490050EAC12018BF04204A0DA0
:1015C00018BF40F0010040F2FF72B2EB515F08BF5C
:1015D00040F00200012808BF052070472DE9F74FB1
:1015E000144694B00021C4E902111599079121F025
:1015F0000045C9498D4206DC1599C4E9000117B0C0
:101600000020BDE8F08FC549DFF814A3A9423CDDF6
:101610000799C44E0029C44FC44A1599534619DD91
:1016200002F0F2FB554506D0C14AC24B02F0ECFB7A
:10163000C4E900010AE04FF0D352BE4B02F0E4FBD4
:1016400032463B4602F0E0FBC4E9000117B001203E
:10165000BDE8F08F01F008FF554506D0B44AB54B00
:1016600001F002FFC4E900010AE04FF0D352B14B90
:1016700001F0FAFE32463B4601F0F6FEC4E90001F5
:1016800017B04FF0FF30BDE8F08FAB49A942159974
:1016900078DB21F0004183468846A84AA84B02F037
:1016A0008DF90022A74B01F0DFFE02F0F1F809905E
:1016B00002F01DF906460F469C4A534602F07EF999
:1016C00043465A4602F0AEFA80468A46984A994BFB
:1016D0003046394602F072F92A0D01250B92424636
:1016E000534602F09FFA032DC4E9000139D00B984C
:1016F000C1F30A51401A05EB45111139814230DA24
:101700009148C346784400EB0510CDF80CA00C902E
:10171000D0E900233046394602F050F902460B4624
:10172000049106905846039902F06EFB80468A4663
:1017300002460B465846039902F066FB049B069A44
:1017400002F062FB83460C9803913946D0E90223EC
:10175000304602F033F95A46039B02F055FB6D1CEC
:10176000BDE707980028A2BF099817B0BDE8F08F21
:10177000616881F000416160099817B04042BDE89E
:10178000F08FFFE784461598C1F31301C0F30A50A8
:10179000A0F2F5304FEA601800F01F06C6F12000F5
:1017A000139000200690079041F4801E05206D469E
:1017B00076B1664A08EB00017A4452F8213002EB18
:1017C0008101B3404A68139922FA01F1194305E0F7
:1017D0005F4908EB0002794451F82210A1FB0E2763
:1017E000A1FB0C131A449A4234BF0123002303EBDC
:1017F000070A05EB8003D3E901B70F448F4234BFDA
:101800000121002193448B4411B1934502D903E097
:10181000934501D2012100E00021C3E901B7514401
:1018200045F82010011EA0F10100C1DC0298059FBF
:1018300000F10050800F12900298DDE903568000FD
:1018400002F055F8834628460D9102F067F86FF0D4
:101850001D0202F0F5FBCDE90E01304602F05EF804
:101860006FF03D0202F0ECFB80468A46384602F0FB
:1018700055F86FF05D0202F0E3FB0746424653461F
:10188000119101F0F1FDDDE90E2301F0EDFD5A4665
:101890000D9B01F0E9FD00250E465A4628460D9B9A
:1018A00002F0B2FADDE90E2302F0AEFA42465346E8
:1018B00002F0AAFA3A46119B02F0B4F9DFF898A0B8
:1018C000244A534602F07AF807468846234A244BB6
:1018D0003146284602F072F83A46434601F0C4FD0C
:1018E000074688464FF0A84253463146284602F044
:1018F00065F83A46434601F0B7FD159A12F0004FDD
:1019000004D0129A81F0004152421292C4E90001BF
:10191000129817B0BDE8F08FFB21E93F7CD9024057
:10192000FB21F93F7370032E8A19A33B000040543A
:101930003163621A61B4D03DFB21394183C8C96D5E
:10194000305FE43F0000E03FE82A0000642A000026
:10195000462A0000182D4454FB21F93D3326A611D8
:10196000460B113C2DE9FF4D21F0004807460C467F
:10197000B8F1795F08DA01F08BFF002801BF002081
:10198000324904B0BDE8F08D3A4623461046194668
:1019900002F014F8054602462D480E460B46062175
:1019A000784400F05DF82A46334602F007F8DDE996
:1019B000022382468B463846214601F0FFFF04464B
:1019C0000F4652465B462846314601F0F7FF224655
:1019D0003B4602F019FA07468A464FF0FF32284686
:1019E000314602F02DFB1B4A90450ADA3A4653462F
:1019F00002F00AFA04B00022BDE8F04D134B02F0E9
:101A000011B9154A4245A8BFA8F500154FF00004CA
:101A1000B8BF124D22462B4602F0F6F9064688461C
:101A200022462B460020094902F0EEF904460D46F5
:101A30003A4653463046414602F0E6F904B02246A3
:101A40002B46BDE8F04D02F0EDB800000000F03F7D
:101A5000142800003333D33F0000E93F0000D23F99
:101A60002DE9F0414F1E00EBC7010446D1E900010A
:101A700015461E4637F006020DD02A46334601F0C1
:101A80009DFF7F1E04EBC703D3E9002301F0ECFCAC
:101A900037F00602F1D1022F25D0042F13D0062FE4
:101AA00018BFBDE8F0812A46334601F087FFD4E92C
:101AB0000A2301F0D9FC2A46334601F07FFFD4E91E
:101AC000082301F0D1FC2A46334601F077FFD4E920
:101AD000062301F0C9FC2A46334601F06FFFD4E922
:101AE000042301F0C1FC2A46334601F067FFD4E924
:101AF000022301F0B9FC2A46334601F05FFFD4E926
:101B00000023BDE8F04101F0AFBC00002DE9FF4D1E
:101B1000054621F0004084B00C46B0F1795F0BDA45
:101B20002846FFF747FD042808BF00F071F8284653
:101B300008B02146BDE8F08D2A460B46104601F05C
:101B40003DFF06460F462A46234601F037FF8046F2
:101B500026488A4632463B4605217844FFF780FFF7
:101B600083461098029160B3214A224B4046514669
:101B700001F024FFCDE900015A4640465146029B40
:101B800001F01CFF82468846DDE906014FF0FF3276
:101B900002F056FA5246434602F036F932463B46C8
:101BA00001F00CFFDDE9062302F02EF9DDE9002348
:101BB00002F02AF908B02A462346BDE8F04D02F0AB
:101BC00031B80B465A463046394601F0F7FE084A0E
:101BD000084B01F049FC4246534601F0EFFE08B0C5
:101BE0002A462346BDE8F04D01F03EBC5A270000CE
:101BF000495555555555C5BF012202F021BA01F08E
:101C000033BC002213461046114601F0E9BC000027
:101C1000024A0020110702F013BA000001FDFFFF85
:101C20002DE9F04D8D4F21F0004A86B005460C4657
:101C3000BA452ADBAAEB070028430AD08848824528
:101C400001DC1AD1CDB106B02846BDE8F04DFFF752
:101C5000D3BF844A844B284601F0B0FE07460E46A7
:101C6000824A834B2846214601F0A8FE06B03A4638
:101C70003346BDE8F04D01F0F7BB0120FEF7EEFA68
:101C800006B0BDE8F04DFFF7BCBF7A48824542DAA6
:101C9000BAF1795F0BDA2846FFF78CFC042808BFFD
:101CA000FFF7B6FF284606B02146BDE8F08D2A466C
:101CB0000B46104601F082FE834602466E480E46F1
:101CC0000B4606217844FFF7CBFE5A46334601F017
:101CD00075FE804669488A465A4633460421784450
:101CE000FFF7BEFE5A46334601F068FE00223B462F
:101CF00001F0BAFB02460B464046514601F070FC2B
:101D00002A46234601F05AFE06B02A462346BDE87D
:101D1000F04D01F0A9BB284624F0004100223D46C9
:101D20003B4601F07FFF4FF0FF3202F089F9064693
:101D3000024653480F460B4606217844FFF790FEB3
:101D400032463B4601F03AFECDE900014D483246AD
:101D50003B4604217844FFF783FE32463B4601F0C0
:101D60002DFE00222B4601F07FFB83460291304678
:101D7000394601F053FB804643480D46504517DC79
:101D8000DDE900015A46029B01F02AFC42462B463F
:101D900001F014FE42462B4601F066FB012202F0E0
:101DA0004FF9304A304B02F02FF8304A304B4CE0BC
:101DB0004FF0000A52460B46404601F055FBCDE974
:101DC000031052462B461046194601F0F7FD3246E5
:101DD0003B4601F027FFDDE9033201F001FC064636
:101DE0000F46DDE900015A46029B01F0F9FB8346EC
:101DF000009101223046394602F022F9194A1A4B65
:101E000001F010FF06460F4601224046294602F027
:101E100017F95A46009B01F0D1FD32463B4601F0CE
:101E2000F3FF06460F4601225046294602F008F904
:101E30000E4DDFF858802A46434601F0F3FE324645
:101E40003B4601F0EFFE2A46434601F0EBFE002C34
:101E5000D8BF81F0004106B0BDE8F08D0000F03F32
:101E60000000F07F075C143326A6913C182D4454E3
:101E7000FB21F93F0000E03F082400001E24000081
:101E800092230000A82300003333EF3FFB21E93FFA
:101E90002DE9F84F04460D4621F0004000917349AA
:101EA000814211DC7249884201DC06D12CB1204606
:101EB0002946BDE8F84FFFF79FBE6E48002DCCBF06
:101EC0006D496E49BDE8F88F6D49814211DD6D495C
:101ED0008142D8BF4FF0FF366DDD20462946FFF71F
:101EE00069FB042808BFFFF793FE20462946BDE89A
:101EF000F88F6549654F25F00045814233DD64491F
:101F0000814219DD002632464FF0804320462946A3
:101F100001F0AAFA80468A4601222046294602F0AC
:101F20008FF800223B4601F06FFF4246534601F016
:101F300057FB04460D463EE001260022BA463B46CA
:101F40002046294601F090FA80460F46002253466B
:101F50002046294601F058FF42463B4601F040FB2F
:101F600004460D4627E04B4981421BDDDFF828A1DE
:101F70000226002253462046294601F01FFD00227A
:101F80003B4601F071FA80460F4600225346204638
:101F9000294601F039FF42463B4601F021FB044649
:101FA0000D4608E0032622462B4600203B4901F05F
:101FB00017FB04460D4622462B461046194601F0F3
:101FC000FDFC8B46824602460B4601F0F7FC0746B5
:101FD0000246334888460B4606217844FFF740FD09
:101FE00052465B4601F0EAFC82462E488B463A4652
:101FF000434605217844FFF733FD3A46434601F056
:10200000DDFC02460B46002E504659460CDA01F024
:102010002BFA22462B4601F0D1FC01B022462B467A
:10202000BDE8F04F01F0FEBD01F01EFA22462B463E
:1020300001F0C4FC1C4A7A4402EBC603D3E9002336
:1020400001F0E2FE22462B4601F0DEFE174A7A44FA
:1020500002EBC603D3E9002301F0E4FD009A002A55
:10206000B8BF81F00041BDE8F88F000000001044C7
:102070000000F07F182D4454FB21F93FFB21F9BFEC
:102080000000DC3F0000203E0000F33F0000F03F76
:102090000000E63F008003400000F83F0000F0BF72
:1020A000AA2100006821000006210000CE200000C7
:1020B0002DE9F04D9446CCF1000423F000464CEAA3
:1020C0000404524F46EAD4749A46884621F00042EE
:1020D000BC4206D8454240EA050442EAD474BC42F8
:1020E00004D9BDE8F04D6246FFF789BDAAF140551D
:1020F000A5F17F6555EA0C040BD0022404EAAA740A
:10210000434DDFF810E144EAD87452EA000B04D0E2
:102110000CE0BDE8F04DFFF7BBBE002C14BF012C56
:10212000BDE8F08D022C30D0032C32D056EA0C0BD7
:102130000AD0BE4220D1BA4209D126F0804622F010
:1021400080423346114617E000291ADB25E0DFF80C
:10215000C8B0FB44002C04BFDBE90001BDE8F08DF2
:10216000012C02BFDBE9000181F00041BDE8F08DE8
:10217000022C0AD0032C0CD0BA4212D1B8F1000FB5
:102180000BDA23482549BDE8F08D28462449BDE8EF
:10219000F08D28467146BDE8F08D1D482149BDE807
:1021A000F08D921B12153C2AC4BF19481D490EDC44
:1021B000BAF1000FBEBF12F13C0F0020014606DB52
:1021C000624601F00DFA21F00041FFF761FE002C9C
:1021D00008BFBDE8F08D012C04BF81F00041BDE8CF
:1021E000F08D114A114B022C07D001F00DFE2A464A
:1021F000BDE8F04D0A4B01F007BE01F005FE2A468E
:10220000BDE8F04D064B01F00DBD00000000F07F71
:10221000182D4454FB2109C092200000FB21F9BF76
:10222000FB210940FB21F93F075C143326A6A13CA2
:1022300000B5244B21F0004287B09A42DCBF002257
:10224000134629DD204B9A4208D140B94FF00100D6
:10225000FEF704F8FFF7D5FC07B000BD03DBFFF77E
:10226000CBFC07B000BD02AAFFF7B8F910F00301DC
:1022700004BF0DF1080C9CE80F000DD001200129CE
:102280000ED0022914D00DF1080C00909CE80F002C
:10229000FFF73CFC07B000BDFFF764FB07B000BDD3
:1022A0000DF1080C00909CE80F00FFF72FFC05E0F3
:1022B0000DF1080C9CE80F00FFF754FB07B081F00C
:1022C000004100BDFB21E93F0000F07FA0B0FEF718
:1022D00013FEFEF75BFD0021FD48FE4AC2E9001037
:1022E000FD4A11605160FD4A116051600020FC4AB6
:1022F0001060506003212620FFF74CF88C21252028
:10230000FFF748F887212720FFF744F818201D9091
:1023100004E0FEF7FFF91D98401E1D901D9800284F
:10232000F7DCFDF7DFFFFEF7F5F9EE4801460CC8D4
:1023300003C901F043FBCDE91A01EB4801460CC883
:1023400003C901F03BFBCDE91601E84801460CC882
:1023500003C901F033FBCDE91401DDE9162301F0D7
:1023600083F8CDE91801DDE91A2301F07DF8CDE904
:102370001C0101F053F8DE4A03C2DD48DB490CC8FA
:1023800003C901F02DF9CDE91801FFF749FC00223E
:10239000D84BCDE91A0101F011FBD74AD74BCDE953
:1023A0001C0101F01DF9D64A03C2CE4903C981F0D0
:1023B0000041CDE91801CC480CC81898FFF778FE09
:1023C0000022CC4BCDE91A0101F0F8FACA4ACB4BF6
:1023D000CDE91C0101F004F9CA4A03C2CA48CB493D
:1023E0000CC803C9FFF764FE0022C24BCDE91A01F5
:1023F00001F0E4FAC04AC14BCDE91C0101F0F0F84C
:10240000C34A03C200221346C14903C901F09AFA24
:1024100007D20022BF4BBE4903C901F025F8BC4AD0
:1024200003C2BB48D0E90010BB4AC2E9001000213A
:10243000BA4A11605160BA4A1160516000910A466F
:102440000B460191B24903C9FEF73AFBB548D0E902
:102450000010A04AC2E90010B348D0E900109E4A1B
:10246000C2E90010B148D0E900109C4AC2E900104E
:10247000AF48D0E900109A4AC2E90010FFF75CF8B3
:1024800000204FF0E0218861AA480068AA49B0FB0B
:10249000F1F0AF2148434FF6FF7101EAC0001E90F2
:1024A00000F04FBF0120A5490870FEF733F98948B5
:1024B000D0E90010A24AC2E900108748D0E9001014
:1024C000A04AC2E900108548D0E900109E4AC2E93E
:1024D0000010834903C99D4A03C29D4803C8CDE942
:1024E00000019C489C490CC803C9FEF7E9FA9048D2
:1024F00096490CC803C901F061FACDE914018B4873
:1025000091490CC803C901F059FACDE91001864878
:102510008C490CC803C901F051FACDE90C0181487E
:1025200087490CC803C901F049FACDE90A01DDE980
:102530000C2301F069FCCDE90E01DDE9102301F067
:1025400063FCCDE91201DDE9142301F05DFC834A4F
:1025500003C276487D490CC803C901F02FFACDE9C2
:102560001401734878490CC803C901F027FACDE972
:1025700010016C4873490CC803C901F01FFACDE97A
:102580000C0169486E490CC803C901F017FACDE97E
:102590000A01DDE90C2300F067FFCDE90E01DDE95A
:1025A000102300F061FFCDE91201DDE9142301F0F1
:1025B0002BFC6B4A03C25C4864490CC803C901F098
:1025C000FDF9CDE9140157485F490CC803C901F072
:1025D000F5F9CDE9100156485A490CC803C901F074
:1025E000EDF9CDE90C01514855490CC803C901F07A
:1025F000E5F9CDE90A01DDE90C2301F005FCCDE99F
:102600000E01DDE9102300F02FFFCDE91201DDE915
:10261000142300F029FF534A03C242484B490CC817
:1026200003C901F0CBF9CDE914013F4846490CC874
:1026300003C901F0C3F9CDE910013C4841490CC878
:1026400003C901F0BBF9CDE90C0139483C490CC87C
:1026500003C901F0B3F9CDE90A01DDE90C2300F06B
:1026600003FFCDE90E01DDE9102301F0CDFBCDE93B
:102670001201DDE9142300F0F7FE3B4A03C21948BA
:1026800001460CC803C901F099F9CDE912011648B9
:1026900001460CC803C901F091F9CDE90E011348B8
:1026A00001460CC803C901F089F9CDE90C01DDE947
:1026B0000E2300F0D9FECDE91001DDE9122300F070
:1026C000D3FECDE9140100F0A9FE094A03C24DE092
:1026D0000000F03F98000020A0000020A80000208B
:1026E000B00000201001002008010020000100209F
:1026F000F800002000806640182D4454FB2109405A
:10270000580000206000002030010020400100201F
:102710006800002000807640500000204800002023
:1027200040000020D8000020E0000020E800002049
:10273000F00000200000002040420F007000002048
:1027400078000020800000208800002090000020F9
:10275000380000202800002030000020B8000020B1
:10276000C0000020C8000020D0000020FD48FE4925
:102770000CC803C900F034FFCDE91001FFF750FA8F
:102780000022FA4BCDE9120101F018F9F84AF94B91
:10279000CDE9140100F024FFF74A03C2F74903C949
:1027A00081F00041CDE91001F5480CC81098FFF701
:1027B0007FFC0022ED4BCDE9120101F0FFF8EC4A5D
:1027C000EC4BCDE9140100F00BFFEE4A03C2EE48DA
:1027D0000CC8E748E74901F0F1F80022E34BCDE9E6
:1027E000140100F0FDFECDE91C01E8480CC8E048EA
:1027F000E04901F0E3F80022DC4BCDE9140100F0E0
:10280000EFFECDE91A01DDE91A01FFF711FDCDE96F
:102810001001DDE91C0100F0B1FDCDE90C01DC483F
:102820000CC80C9801F0CAF8CDE90E01DDE91023BF
:1028300001F0C4F8CDE91401DDE91A0100F09EFDB4
:10284000CDE90C01DDE91C0100F098FDCDE908019E
:10285000D0480CC8089801F0B1F8CDE90A01DDE9CB
:102860000C2301F0ABF8CDE91001DDE91C01FFF705
:10287000DFFCCDE90C01C8480CC80C9801F09EF8AB
:10288000CDE90E01DDE9102300F0EEFDCDE91201E6
:10289000DDE9142301F0B8FAC04A03C2DDE91A01E8
:1028A000FFF7C6FCCDE91001BA480CC8109801F03A
:1028B00085F8CDE91401DDE91A0100F05FFDCDE9ED
:1028C0001001B3480CC8109801F078F8CDE9120156
:1028D000DDE9142300F0C8FDB14A03C2AF48B04996
:1028E0000CC803C9FFF7E4FB0022A04BCDE912019D
:1028F00001F064F89E4A9F4BCDE9140100F070FE90
:10290000A84A03C200221346A64903C901F01AF8D7
:1029100007D20022A44BA34903C900F0A5FDA14A98
:1029200003C2A2489F490CC803C901F06DFACDE962
:1029300010019F480CC8109801F040F8CDE9120131
:102940009A480CC8129800F08FFDCDE914018A480E
:1029500003C8CDE900018B480CC8DDE91401FEF77E
:10296000AFF8944894490CC803C901F027F8CDE9A1
:102970001401924892490CC803C901F01FF8CDE92F
:102980001001904890490CC803C901F017F8CDE92F
:102990000C018E488E490CC803C901F00FF8CDE92F
:1029A0000A01DDE90C2300F05FFDCDE90E01DDE950
:1029B000102300F059FDCDE91201DDE9142300F0E8
:1029C00053FDCDE9160100221346DDE9160101F0A1
:1029D000F3F875D87F487D490CC803C900F0EEFFB5
:1029E000CDE914017B480CC800207B4901F00CFAAA
:1029F000CDE9100176480CC8109800F0DFFFCDE952
:102A00001201DDE9142300F02FFD744A03C271485E
:102A10006C490CC803C900F0D1FFCDE914016D4821
:102A20000CC800206C4901F0EFF9CDE910016648AF
:102A30000CC8109800F0C2FFCDE91201DDE91423A3
:102A400000F012FD664A03C262485C490CC803C923
:102A500000F0B4FFCDE914015E480CC800205E49C7
:102A600001F0D2F9CDE9100155480CC8109800F0DA
:102A7000A5FFCDE91201DDE9142300F0F5FC594A68
:102A800003C254484B490CC803C900F097FFCDE975
:102A9000140150480CC800204F4901F0B5F9CDE9A8
:102AA000100145480CC8109800F088FFCDE91201CC
:102AB000DDE9142300F0D8FC4B4A03C2B9E0FFE77C
:102AC000444842490CC803C900F078FFCDE914011D
:102AD00040480CC80020404901F096F9CDE91001AA
:102AE0003B480CC8109800F069FFCDE91201DDE900
:102AF000142301F089F9394A03C2364831490CC818
:102B000003C900F05BFFCDE9140132480CC8002076
:102B1000314901F079F9CDE910012B480CC8109822
:102B200000F04CFFCDE91201DDE9142301F06CF94E
:102B30002B4A03C2274821490CC803C900F03EFFB5
:102B4000CDE9140123480CC80020234901F05CF9A9
:102B5000CDE910011A480CC8109800F02FFFCDE9FC
:102B6000120143E0F80000200001002000806640D0
:102B7000182D4454FB21094058000020100100206A
:102B800008010020600000204000002048000020D4
:102B900038010020400100203001002048010020C1
:102BA0005001002068000020008076405000002086
:102BB00068010020D0000020F0000020C8000020A4
:102BC000E8000020C0000020E0000020B800002045
:102BD000D8000020700100200000F03F9800002085
:102BE000A0000020A8000020B0000020DDE9142390
:102BF00001F00AF9FD4A03C2FD48FE490CC803C9A9
:102C000000F0DCFECDE91401F9480CC80020FA49B7
:102C100001F0FAF8CDE91001F8480CC8109800F05E
:102C2000CDFECDE91201DDE9142301F0EDF8F44AFF
:102C300003C2F34801460CC803C900F0BFFECDE94A
:102C40001001EA4801460CC803C900F0B7FECDE9FF
:102C50000C01EC4801460CC803C900F0AFFECDE9F9
:102C60000801E94801460CC803C900F0A7FECDE9F8
:102C70000601DDE9082300F0F7FBCDE90A01DDE9F3
:102C80000C2300F0F1FBCDE90E01DDE9102300F08B
:102C9000EBFBCDE9120100F0C1FB02460B46CDE98A
:102CA00014010020D44900F09BFCCDE91801D6495D
:102CB000DDE9182303C900F081FED34A03C2D149DC
:102CC000DDE9182303C900F079FECE4A03C2C749E3
:102CD000DDE9182303C900F071FEC44A03C2C849E4
:102CE000DDE9182303C900F069FEC54A03C2BF48E5
:102CF0000CC800204FF0804100F060FECDE90601D5
:102D0000BA480CC8069800F059FECDE90A01BE4841
:102D10000CC800204FF0804100F050FECDE90601C4
:102D2000B9480CC8069800F049FECDE90801DDE974
:102D30000A2300F099FB0022AF4BCDE90C0101F012
:102D400063F8CDE91001B0480CC800204FF0804175
:102D500000F034FECDE90801AA480CC8089800F03C
:102D60002DFECDE90C01A1480CC800204FF0804198
:102D700000F024FECDE90801A1480CC8089800F035
:102D80001DFECDE90A01DDE90C2301F03DF881F0DB
:102D90000041CDE90E01DDE91023FFF789F900229A
:102DA0009A4BCDE9120100F009FE994A994BCDE901
:102DB000140100F015FC984A03C293480CC8002087
:102DC0004FF0804100F0FAFDCDE906018E480CC8B5
:102DD000069800F0F3FDCDE90A018A480CC80020EE
:102DE0004FF0804100F0EAFDCDE9060185480CC8AE
:102DF000069800F0E3FDCDE90801DDE90A2300F0C3
:102E000033FB00227C4BCDE90C0100F0FDFFCDE946
:102E100010017D480CC800204FF0804100F0CEFD2D
:102E2000CDE9080171480CC8089800F0C7FDCDE94C
:102E30000C0174480CC800204FF0804100F0BEFD2A
:102E4000CDE908016E480CC8089800F0B7FDCDE93F
:102E50000A01DDE90C2300F0D7FF81F00041CDE944
:102E60000E01DDE91023FFF723F90022674BCDE9BE
:102E7000120100F0A3FD664A664BCDE9140100F093
:102E8000AFFB664A03C200221346644903C900F03F
:102E900059FD07D20022624B604903C900F0E4FAF1
:102EA0005E4A03C258480CC800204FF0804100F031
:102EB00085FDCDE90A0152480CC80A9800F07EFD54
:102EC000CDE90E014F480CC800204FF0804100F0C2
:102ED00075FDCDE90A0145480CC80A9800F06EFD61
:102EE000CDE90C01DDE90E2300F0BEFACDE91001B9
:102EF000FEF796FE0022454BCDE9120100F05EFD83
:102F0000434A444BCDE9140100F06AFB454A03C231
:102F10003D480CC800204FF0804100F04FFDCDE946
:102F20000A0132480CC80A9800F048FDCDE90E01AC
:102F300034480CC800204FF0804100F03FFDCDE93F
:102F40000A012F480CC80A9800F038FDCDE90C01A1
:102F5000DDE90E2300F088FACDE9100132480CC8F3
:102F6000109800F02BFDCDE9140127480CC8002073
:102F70004FF0804100F022FDCDE9060120480CC849
:102F8000069800F01BFDCDE90A011E480CC8002080
:102F90004FF0804100F012FDCDE9060113480CC846
:102FA000069800F00BFDCDE90801DDE90A2300F0E9
:102FB0002BFFCDE90C011D480CC80C9800F0FEFC5D
:102FC000CDE910010E4801460CC803C900F0F6FC1B
:102FD000CDE90A01054801460CC803C900F0EEFC22
:102FE000CDE90601074801460CC821E0A8000020F1
:102FF00070010020D00000200000F03FF000002011
:10300000B0000020A0000020980000200080664052
:10301000182D4454FB210940480000205000002096
:1030200000807640400000201001002008010020B0
:1030300003C900F0C3FCCDE90201C34801460CC836
:1030400003C900F0BBFCCDE90001DDE9022300F07B
:103050000BFACDE90401DDE9062300F0D5FECDE948
:103060000801DDE90A2300F0CFFECDE90C01B748E5
:103070000CC80C9800F0A2FCCDE90E01DDE910238C
:1030800000F0F2F9CDE91201DDE9142300F0ECF9CA
:10309000AF4A03C2AC480CC800204FF0804100F09A
:1030A0008DFCCDE90A01AB480CC80A9800F086FCFB
:1030B000CDE90E01A8480CC800204FF0804100F077
:1030C0007DFCCDE90A01A5480CC80A9800F076FC01
:1030D000CDE90C01DDE90E2300F096FECDE91001EB
:1030E0009F480CC8109800F069FCCDE914019B487A
:1030F00001460CC803C900F061FCCDE90A019648FD
:1031000001460CC803C900F059FCCDE906019148FD
:1031100001460CC803C900F051FCCDE902018A4800
:1031200001460CC803C900F049FCCDE90001DDE906
:10313000022300F069FECDE90401DDE9062300F079
:1031400093F9CDE90801DDE90A2300F05DFECDE940
:103150000C0184480CC80C9800F030FCCDE910013B
:1031600079480CC800204FF0804100F027FCCDE9E1
:1031700006017A480CC8069800F020FCCDE90A0147
:1031800074480CC800204FF0804100F017FCCDE9D6
:10319000060171480CC8069800F010FCCDE9080142
:1031A000DDE90A2300F060F9CDE90C0167480CC89D
:1031B0000C9800F003FCCDE90E01DDE9102300F0CE
:1031C00053F9CDE91201DDE9142300F04DF9664A07
:1031D00003C2624801460CC803C900F0EFFBCDE909
:1031E0000E015D4801460CC803C900F0E7FBCDE9BC
:1031F0000A01584801460CC803C900F0DFFBCDE9BD
:103200000601514801460CC803C900F0D7FBCDE9BF
:103210000401DDE9062300F0F7FDCDE90801DDE951
:103220000A2300F0F1FDCDE90C01DDE90E2300F0E9
:103230001BF9CDE910014A480CC8109800F0BEFBFC
:10324000CDE9140140480CC800204FF0804100F047
:10325000B5FBCDE906013F480CC8069800F0AEFB6F
:10326000CDE90A013C480CC800204FF0804100F035
:10327000A5FBCDE9060139480CC8069800F09EFB75
:10328000CDE90801DDE90A2300F0EEF8CDE90C01F3
:1032900034480CC80C9800F091FBCDE910012A4885
:1032A0000CC800204FF0804100F088FBCDE90601FA
:1032B00029480CC8069800F081FBCDE90A01254891
:1032C0000CC800204FF0804100F078FBCDE90601EA
:1032D00022480CC8069800F071FBCDE90801DDE931
:1032E0000A2300F091FDCDE90C0118480CC80C9898
:1032F00000F064FBCDE90E01DDE9102300F0B4F825
:10330000CDE91201DDE9142300F0AEF8174A03C23B
:10331000FDF72CF9012016490870002015490870A6
:10332000FDF71EFD00BF4FF0E02081691E9881422D
:10333000F9D8FDF78DFD00BF0F4800780028FBD1BC
:1033400000BFFFF7AFB80000980000200001002088
:1033500018010020A0000020A8000020B0000020DC
:103360001001002008010020200100202801002079
:1033700071000020780100207000002000B5254B6E
:1033800021F0004287B09A4203DC002213460092EB
:103390002BE0214B9A4208D140B94FF00100FCF7D5
:1033A0005DFFFEF72EFC07B000BD03DBFEF724FC3B
:1033B00007B000BD02AAFEF711F910F003014FF0AB
:1033C00001000DD0012914D002291AD00DF1080CEA
:1033D0009CE80F00FEF7C6FA07B081F0004100BD7F
:1033E0000DF1080C00909CE80F00FEF78FFB07B072
:1033F00000BD0DF1080C9CE80F00FEF7B3FA07B012
:1034000000BD0DF1080C00909CE80F00FEF77EFB5C
:10341000E2E70000FB21E93F0000F07F2DE9F041E9
:1034200006460F4600F00AFC041E0D4618BF012098
:10343000284320F00040C0F17F6000F1E040C00F61
:103440000ED0301C18BF0120384320F00040C0F1DE
:103450007F6000F1E040C00F04BF0120FCF7FEFEDA
:1034600020462946BDE8F08110B591EA030F48BF18
:1034700083F0004300F1D084841A71EB030C05D271
:10348000121943EB0C03001B61EB0C01DFF824E184
:103490004FEA1154A4EB135C1EEA430F18BF9EEAD7
:1034A000445F73D023EA0E03DCF1200E21EA0451BD
:1034B00043F4801332D322FA0CFE10EB0E0023FAF1
:1034C0000CFE41EB0E01CCF1200E03FA0EFE10EBC8
:1034D0000E0051F10001B1F5801FCCF1200E32D267
:1034E00001EB045112FA0EF2BDE8104058BF7047CC
:1034F000401C38BF5FEA420218BF7047002814BF63
:1035000020F0010041F100014FEA410313F5001FD3
:1035100038BF7047A1F1C04100F048BB012A43EB1E
:103520000302ACF1200CDCF11F0E32BF4FF0000E95
:1035300023FA0CF310EB030041EB0451B4EB115FE1
:10354000D0D0A1EB045101F5801149085FEA3000A9
:1035500001EB04510ED350F1000038BF12FA0EFEF9
:1035600008D1BDE81040C9E7401C38BF5FEA4202FD
:10357000CAD1C3E7BDE810404FEA410313F5001F6D
:1035800038BF7047A1F1C04100F010BB9EEA445F14
:1035900008D011EA5E0FBDE8104004BF01F0004101
:1035A00000207047BDE8104070B500F0B1FA00BFD0
:1035B00064FBBE3E0000E0FF02494FF0000000F057
:1035C0000DBD00BF0000F87F491058BFC1F1404158
:1035D0005B1058BFC3F140438B42EFF3008070474C
:1035E0002DE9C04130B4DFF8A0C23CEA111418BF85
:1035F0003CEA131400F0EC8081EA03051CEA111484
:1036000044EAD57418BF1CEA131500F0C780A4EB78
:1036100005044FF0004545EAC12145EAC32341EACC
:10362000505143EA525304F17F74994204F5003437
:103630004FEAC0204FEAC22208BF904200F09C80AF
:103640004FEA13650FF24016765D4FEA134506FB0D
:1036500005F7C7F1807706FB07F74FEAD737A7FBD7
:1036600003687642C8F58038A7FB06CE38BFA8F1BC
:10367000010807FB08E64FF0000EA6FB028CE6FBF4
:1036800003CEDCF1000CCEF1004E38BFAEF1010EDE
:10369000A6FB0C584FF000074FF00005E6FB0E8725
:1036A000A1FB08C6A0FB07CE16EB0E0645F10005F0
:1036B000E1FB076515F1E04E7EBFA4F580345FEABB
:1036C00046066D4116F1800745F100054FEA1727C0
:1036D0004FEA066647EA0567A6F1DE46B6F1805F67
:1036E0004FEA15251FD9384624F0010C05EBC471AB
:1036F000BCF1FE6F01EB0C1102D8F0BCBDE80081FB
:1037000024425CBF01F5801E9EEAC47F02D4F0BC57
:10371000BDE80081244238D4F0BCA1F1C041BDE82D
:10372000004100F043BA4FEAD22242EA43524FEA44
:10373000D323A7FB02864FEAD02040EA415007FB83
:1037400003661EEA0E0F4FEAD12105FB026658BF41
:10375000A6EB0056B6EB00564FEA520E4EEAC37E79
:1037600018EB0E0E56EB530EBDD518EB02085E415A
:103770007F1C55F10005B6E74FF480154FF00007A8
:103780004FF000064FF00008ADE7F0BC4FF000002E
:1037900001F1C04101F00041BDE8008111EA0C1FB8
:1037A0000CEA131500D00CE013EA0C1F00F0258082
:1037B0004FF00000F0BC81EA030101F00041BDE8D8
:1037C0000081F0BCBDE8004181EA030100F0EEB9E0
:1037D000F0BCBDE8004170B500F09AF9097EFC3EEE
:1037E00000F007B881EA03014FF0000001F000414A
:1037F000704781EA030100F0D9B9F0BCBDE800418F
:103800004FF0000021497047FFFDFBF9F7F5F4F296
:10381000F0EEEDEBE9E8E6E4E3E1E0DEDDDBDAD86B
:10382000D7D5D4D3D1D0CFCDCCCBCAC8C7C6C5C4C9
:10383000C2C1C0BFBEBDBCBBBAB9B8B7B6B5B4B3E0
:10384000B2B1B0AFAEADACABAAA9A8A8A7A6A5A4CB
:10385000A3A3A2A1A09F9F9E9D9C9C9B9A9999988F
:103860009797969595949393929191908F8F8E8E32
:103870008D8C8C8B8B8A89898888878786858584BF
:1038800084838382828181800000FF070000F87FAB
:103890004FEA41034FEA5353A3F58063D3F11E036C
:1038A000C8BFD3F1210C0CDD4FF0004242EAC12227
:1038B00042EA505232FA03FC8CEAE17CACEBE17054
:1038C0007047102BC4BF0020704703F5787CBCF113
:1038D000FF3F04D06FF0004282EA2100704770B5CC
:1038E00000F016F94992248000207047F2E710F0AA
:1038F000004248BF4042B0FA80F310FA03F10AD008
:10390000C3F11D0303F580634FEA415002EB0352FC
:1039100002EBD12170474FF000007047B0FA80F3FE
:1039200010FA03F10AD0C3F11D0303F580634FEAD7
:1039300041504FEA035202EBD12170474FF0000093
:103940007047000051EA030C17D41CF5801F58BFC4
:10395000BCF5801F00F10680994218BF704708BF70
:103960009042704707D711F5801F58BF13F5801F8D
:1039700019D499427047894270471CF5801F08D5B9
:10398000BCF5801FF7D58B4218BF704708BF824235
:1039900070474FF4001C1CEB410F38BF1CEB430F6A
:1039A00001D28B42704770B500F0B2F89224490002
:1039B0004FF000514FF08053FFF706BEDFF848C1CB
:1039C00070B51CEA111E1EBF1CEA13159EEA0C0FEF
:1039D00095EA0C0F00F06F8081EA030423EA4C1390
:1039E0004EEAD47E21EA4C1141F4801143F4801355
:1039F000AE44A1FB024CA0FB0365AEF17F7E3619FD
:103A000055EB0C05A1FB034C4CF10003A0FB021C81
:103A100016EB0C06654153F10003094218BF46F04E
:103A2000010613F4007F0BD14FEA03314FEA053052
:103A3000340341EA155140EA16506FF003020AE0E0
:103A40004FEAC3214FEAC520F40241EA555140EA4A
:103A500056506FF0020202EB2E4201EB025585EA4E
:103A6000CE710AD05FEA440C18BF24F0004450F134
:103A7000000041F1000120EAD47040F2FE7C624572
:103A800000D270BDA84214BF4FF080444FF04044B4
:103A9000002E08BF0024BEF1806FA8BFA1F1C04175
:103AA000BDE8704080F282804FF0000001F1C0411B
:103AB00001F0004170479EEA0C0F0CEA131518BF85
:103AC00095EA0C0F06D04FF0000081EA030E0EF0CD
:103AD000004170BD00F01CF88900013E00F007B8FD
:103AE00000F009B84FEA430C5FEA5C5C08D081EA59
:103AF000030100F05BB84FEA410C5FEA5C5CF6D171
:103B00004FF00000014970470000FF070000F87FF8
:103B10000EF1020E2EF0030E5EF8046B364205D451
:103B2000012A43EB030515F5001F12D8012841EBCC
:103B3000010C1CF5001F0CD80ED14FEAD17C15F5F5
:103B4000001F0CEB4C0C0CF1020C08BF4CEBD37CAF
:103B500004E04FF0080C01E04FEAD37C0CEB4C057D
:103B600026FA05F606F00706B6F1040C06D20EEBAF
:103B7000860CBDE870404CF0010C6047DFE80CF0AB
:103B8000090B02024FF000414FF00000A1F50021A7
:103B900070BD19461046012851EB010418BFD4F539
:103BA000001484BF002001F0004170BD0808A0F59A
:103BB00000114FEA3101704753EA010C17D41CF58C
:103BC000801F58BFBCF5801F00F106808B4218BFD4
:103BD000704708BF8242704707D713F5801F58BF50
:103BE00011F5801F19D48B4270479B4270471CF51A
:103BF000801F08D5BCF5801FF7D5994218BF7047C4
:103C000008BF904270474FF4001C1CEB430F38BFB5
:103C10001CEB410F01D2994270470FB40CBC03BC9E
:103C2000FFF7C1BE91EA030F10B581F000413FF5E7
:103C300023AC83F0004300F0EFB800002DE9F04121
:103C400001F5801CBCF5001FC0F2C3804FEA115C77
:103C500021EA0C510CF1FD0C41F480115FEA5C0C7F
:103C60000CF5C07C01D3400049413DA4890241EAE2
:103C7000905187028E0E0A0CA45D04FB04F602FB31
:103C800006F6C6F14046A4FB0662F60D46EA422659
:103C900006FB06F4A4FB01235242C3F1404338BFA4
:103CA0005B1EA6FB02420024E6FB0324D20B42EA81
:103CB0004446A6FB0623A1FB02E2A3FB07E4A418EB
:103CC0004FF0000252F10002E3FB01426442C2F1F4
:103CD000404E38BFAEF1010EA6FB04234FF00002A8
:103CE000E6FB0E32A2FB03464FF00004B61954F176
:103CF0000004E2FB0264A1FB06E6A4FB07E816EB66
:103D000008064FF0000858F10008E4FB016876420D
:103D1000C8F1405838BFA8F10108A2FB06E4A3FB94
:103D200008E52D194FF0000454F10004E2FB08549B
:103D3000A1FB05E6A7FB04E818EB06084FF0000618
:103D400056F10006E1FB048618F1200556F1000645
:103D5000A809A8F11B08B10908F03F08B8F10A0F3B
:103D600040EA86601CD901EB0C51BDE8F08100BF30
:103D7000FCF5EEE8E2DDD8D3CFCBC7C3C0BDB9B602
:103D8000B4B1AEACA9A7A5A3A19F9D9B9A98969507
:103D90009392908F8D8C8B8988878685848382818E
:103DA000A0FB006800FB01F208EB4208B8EB872893
:103DB00007D5341858EB0104D5D5401C51F100014A
:103DC000D1E7341A78EB0104CDD4401E71F1000123
:103DD000C9E75FEA4C0C5FEA9C5C0DD105D34FF05C
:103DE000000001F00041BDE8F081BDE8F04170B590
:103DF000FFF78EFE6DDBFFBEBDE8F0414FF0000027
:103E0000004970470000F87F10B591EA030F48BFE2
:103E100083F000433FF530AB841A71EB030C07D2FB
:103E200012198CF0004C43EB0C03001B61EB0C01EE
:103E3000DFF8A4E14FEA1154A4EB135C1EEA430F30
:103E400018BF9EEA445F00F0B08023EA6E0352423E
:103E500021EA0451C3EB6E0338BF5B1EDCF1200E78
:103E600025D322FA0CFE10EB0E0043FA0CFE41EBB8
:103E70000E01CCF1200E03FA0EFE10EB0E0051F1F4
:103E80000001CCF1200E29D412FA0EF201EB0451FC
:103E9000BDE8104058BF7047401C1CBFB2F1004F36
:103EA000704700280CBF491C20F00100704712EB3E
:103EB000020E43EB030218BF4FF0010E4EEA42021E
:103EC000ACF1200CDCF11E0E54D943FA0CFE10EBC1
:103ED0000E0051F1FF31CCF11E0ED5D50EF1010EC1
:103EE00012FA0EFE404141EB010101EB445C5FEA36
:103EF0005C5C10D910EBDE7001EB045138BFBEF1F1
:103F0000004FBDE8104018BF704700280CBF491C87
:103F100020F00100704730D24FEAD42C11F5001187
:103F200024F400641BD0B1FA81F20B3AA41AA41E47
:103F3000D2F12003914030FA03F31943904001EB92
:103F4000CC71002C01EB0451BDE81040A8BF7047B4
:103F500001F1C0414FF0000001F000417047B0FA9C
:103F600080F310FA03F100D110BDE41A173C4805A4
:103F7000C90AE4E701EB045110BD491001EB0451FB
:103F8000BDE810404FEA300002E04FF000017047FA
:103F90004A0008BF0042F8D0B2F5001F28BF7047A2
:103FA00001F000414FF0000070479EEA445F07D0E7
:103FB00011EA5E0FBDE8104004BF002100207047E9
:103FC000BDE8104070B5FFF7A3FD00BF40DFF63E2F
:103FD00083F00041104670470000E0FF0CF00F0333
:103FE000092B08BF082000F059800A2B0BD0082BA2
:103FF00018BF704708BF1CF0400F0AD04FF00000F8
:104000004FF0000170471CF0400F18BF4FF0004008
:1040100070471CF0100F08D020F0704300F07F4272
:1040200042EAD3014FEA4370704700F0604021F04C
:104030007F4242EA000201F07F4040EA727070471E
:104040004FF0FF0C4CF4E06C1CEA11531CBF9CEACF
:10405000030C9445C2BFDA4201EB02517047002BBA
:104060000DD0BCF1000F0FD0002A01F00041A4BF19
:1040700041F0E04141F07F614FF00000704701F0F6
:1040800000414FF00000704750EA01334FF09B0CA5
:1040900018BF4CF0806C7FF48FAA70471CF4801F0F
:1040A00011D01CF4E02F03D06FEACC3149007047E7
:1040B0004FF04050EFF3008222F0704242EA0002DB
:1040C00082F3008870474FF0000070470000000046
:1040D000555555555555C53F7D6FEB0312D6D4BF89
:1040E0005544880E55C1C93F3B8F68B52882A4BF8F
:1040F00088B20175E0EF493F09F7FD0DE13D023F50
:104100004B2D8A1C273A03C0C88A599CE52A0040D7
:1041100059018D1B6C06E6BF82922EB1C5B8B33F24
:104120004FBB610567ACDD3F182D4454FB21E93FCF
:104130009BF681D20B73EF3F182D4454FB21F93FBE
:10414000E2652F227F2B7A3C075C143326A6813C44
:10415000BDCBF07A8807703C075C143326A6913CEF
:10416000C4EB98999999C9BF711623FEC671BCBF5B
:104170006D9A74AFF2B0B3BF9AFDDE522DDEADBFC3
:104180002F6C6A2C44B4A2BF0D5555555555D53FDB
:10419000FF8300922449C23F6E204CC5CD45B73FF6
:1041A000513DD0A0660DB13FEB0D76244B7BA93F6E
:1041B00011DA22E33AAD903F4C5555555555A53F80
:1041C0007751C1166CC156BF9015CB19A001FA3EAC
:1041D000AD529C804F7E92BEC4B1B4BD9EEE213ED6
:1041E000D43888BEE9FAA8BD000000000000000035
:1041F00000004054FB21F93F3163621A61B4D03DA5
:104200000000601A61B4D03D7370032E8A19A33B7D
:104210000000002E8A19A33BC14920259A837B39CF
:1042200000000000000000006E83F9A22915444E32
:10423000D15727FCC0DD34F5999562DB4190433CB2
:10424000AB6351FE61C5BBDE3A6E24B7E0D24D428E
:10425000EA2E49061C92D1091CEB1DFE3EA729B18E
:10426000F53582E88444BB2E26709CE9417E5FB41C
:1042700039D69139F43953838B5F849C3B28F9BD3F
:10428000FF97F81F0F9805DE8B112FEF1F6D0A5A4D
:10429000CF7E366DB709CB27663F464F2DEA5F9E2E
:1042A000C7BA27757BF1E5EBF739073DEA92528AE9
:1042B000B15FFB6B085D8D1FA6F810111111813FD6
:1042C000D561C119A0012ABF7DFEB157E31DC73ECC
:1042D000EB9C2B8AE6E55ABE7CD5CF5A3AD9E53D10
:1042E0000043000800000020980100006C01000855
:1042F000304300089801002078060000C80100083B
:104300001184A24A0400095C01020304060708099B
:1043100002E7012B9A9901780AB93F7B14AE47E175
:104320007AB4080009205C8FC2F5285CEF3F0000DA
:040000050800020DE0
:00000001FF
